{
  "_format": "hh-sol-artifact-1",
  "contractName": "TransactionStorage",
  "sourceName": "contracts/TransactionStorage.sol",
  "abi": [
    {
      "inputs": [
        {
          "internalType": "uint256",
          "name": "_id",
          "type": "uint256"
        }
      ],
      "name": "getTransaction",
      "outputs": [
        {
          "components": [
            {
              "internalType": "uint256",
              "name": "id",
              "type": "uint256"
            },
            {
              "internalType": "string",
              "name": "prediction",
              "type": "string"
            },
            {
              "internalType": "string",
              "name": "negativeProbability",
              "type": "string"
            },
            {
              "internalType": "string",
              "name": "positiveProbability",
              "type": "string"
            }
          ],
          "internalType": "struct TransactionStorage.Transaction",
          "name": "",
          "type": "tuple"
        }
      ],
      "stateMutability": "view",
      "type": "function"
    },
    {
      "inputs": [],
      "name": "nextId",
      "outputs": [
        {
          "internalType": "uint256",
          "name": "",
          "type": "uint256"
        }
      ],
      "stateMutability": "view",
      "type": "function"
    },
    {
      "inputs": [
        {
          "internalType": "string",
          "name": "_prediction",
          "type": "string"
        },
        {
          "internalType": "string",
          "name": "_negativeProbability",
          "type": "string"
        },
        {
          "internalType": "string",
          "name": "_positiveProbability",
          "type": "string"
        }
      ],
      "name": "storeTransaction",
      "outputs": [],
      "stateMutability": "nonpayable",
      "type": "function"
    },
    {
      "inputs": [
        {
          "internalType": "uint256",
          "name": "",
          "type": "uint256"
        }
      ],
      "name": "transactions",
      "outputs": [
        {
          "internalType": "uint256",
          "name": "id",
          "type": "uint256"
        },
        {
          "internalType": "string",
          "name": "prediction",
          "type": "string"
        },
        {
          "internalType": "string",
          "name": "negativeProbability",
          "type": "string"
        },
        {
          "internalType": "string",
          "name": "positiveProbability",
          "type": "string"
        }
      ],
      "stateMutability": "view",
      "type": "function"
    }
  ],
  "bytecode": "0x60806040526001805534801561001457600080fd5b50610ce6806100246000396000f3fe608060405234801561001057600080fd5b506004361061004c5760003560e01c806333ea3dc81461005157806361b8ce8c146100815780639ace38c21461009f578063ea9c6a6d146100d2575b600080fd5b61006b60048036038101906100669190610853565b6100ee565b60405161007891906109c0565b60405180910390f35b6100896103c8565b60405161009691906109e2565b60405180910390f35b6100b960048036038101906100b49190610853565b6103ce565b6040516100c994939291906109fd565b60405180910390f35b6100ec60048036038101906100e791906107bc565b6105a6565b005b6100f6610674565b60005b600080549050811015610387578260008281548110610141577f4e487b7100000000000000000000000000000000000000000000000000000000600052603260045260246000fd5b90600052602060002090600402016000015414156103745760008181548110610193577f4e487b7100000000000000000000000000000000000000000000000000000000600052603260045260246000fd5b9060005260206000209060040201604051806080016040529081600082015481526020016001820180546101c690610b26565b80601f01602080910402602001604051908101604052809291908181526020018280546101f290610b26565b801561023f5780601f106102145761010080835404028352916020019161023f565b820191906000526020600020905b81548152906001019060200180831161022257829003601f168201915b5050505050815260200160028201805461025890610b26565b80601f016020809104026020016040519081016040528092919081815260200182805461028490610b26565b80156102d15780601f106102a6576101008083540402835291602001916102d1565b820191906000526020600020905b8154815290600101906020018083116102b457829003601f168201915b505050505081526020016003820180546102ea90610b26565b80601f016020809104026020016040519081016040528092919081815260200182805461031690610b26565b80156103635780601f1061033857610100808354040283529160200191610363565b820191906000526020600020905b81548152906001019060200180831161034657829003601f168201915b5050505050815250509150506103c3565b808061037f90610b89565b9150506100f9565b506040517f08c379a00000000000000000000000000000000000000000000000000000000081526004016103ba906109a0565b60405180910390fd5b919050565b60015481565b600081815481106103de57600080fd5b906000526020600020906004020160009150905080600001549080600101805461040790610b26565b80601f016020809104026020016040519081016040528092919081815260200182805461043390610b26565b80156104805780601f1061045557610100808354040283529160200191610480565b820191906000526020600020905b81548152906001019060200180831161046357829003601f168201915b50505050509080600201805461049590610b26565b80601f01602080910402602001604051908101604052809291908181526020018280546104c190610b26565b801561050e5780601f106104e35761010080835404028352916020019161050e565b820191906000526020600020905b8154815290600101906020018083116104f157829003601f168201915b50505050509080600301805461052390610b26565b80601f016020809104026020016040519081016040528092919081815260200182805461054f90610b26565b801561059c5780601f106105715761010080835404028352916020019161059c565b820191906000526020600020905b81548152906001019060200180831161057f57829003601f168201915b5050505050905084565b60006040518060800160405280600154815260200185815260200184815260200183815250908060018154018082558091505060019003906000526020600020906004020160009091909190915060008201518160000155602082015181600101908051906020019061061a92919061069c565b50604082015181600201908051906020019061063792919061069c565b50606082015181600301908051906020019061065492919061069c565b5050506001600081548092919061066a90610b89565b9190505550505050565b6040518060800160405280600081526020016060815260200160608152602001606081525090565b8280546106a890610b26565b90600052602060002090601f0160209004810192826106ca5760008555610711565b82601f106106e357805160ff1916838001178555610711565b82800160010185558215610711579182015b828111156107105782518255916020019190600101906106f5565b5b50905061071e9190610722565b5090565b5b8082111561073b576000816000905550600101610723565b5090565b600061075261074d84610a7c565b610a57565b90508281526020810184848401111561076a57600080fd5b610775848285610ae4565b509392505050565b600082601f83011261078e57600080fd5b813561079e84826020860161073f565b91505092915050565b6000813590506107b681610c99565b92915050565b6000806000606084860312156107d157600080fd5b600084013567ffffffffffffffff8111156107eb57600080fd5b6107f78682870161077d565b935050602084013567ffffffffffffffff81111561081457600080fd5b6108208682870161077d565b925050604084013567ffffffffffffffff81111561083d57600080fd5b6108498682870161077d565b9150509250925092565b60006020828403121561086557600080fd5b6000610873848285016107a7565b91505092915050565b600061088782610aad565b6108918185610ab8565b93506108a1818560208601610af3565b6108aa81610c5f565b840191505092915050565b60006108c082610aad565b6108ca8185610ac9565b93506108da818560208601610af3565b6108e381610c5f565b840191505092915050565b60006108fb601583610ac9565b915061090682610c70565b602082019050919050565b60006080830160008301516109296000860182610982565b5060208301518482036020860152610941828261087c565b9150506040830151848203604086015261095b828261087c565b91505060608301518482036060860152610975828261087c565b9150508091505092915050565b61098b81610ada565b82525050565b61099a81610ada565b82525050565b600060208201905081810360008301526109b9816108ee565b9050919050565b600060208201905081810360008301526109da8184610911565b905092915050565b60006020820190506109f76000830184610991565b92915050565b6000608082019050610a126000830187610991565b8181036020830152610a2481866108b5565b90508181036040830152610a3881856108b5565b90508181036060830152610a4c81846108b5565b905095945050505050565b6000610a61610a72565b9050610a6d8282610b58565b919050565b6000604051905090565b600067ffffffffffffffff821115610a9757610a96610c30565b5b610aa082610c5f565b9050602081019050919050565b600081519050919050565b600082825260208201905092915050565b600082825260208201905092915050565b6000819050919050565b82818337600083830152505050565b60005b83811015610b11578082015181840152602081019050610af6565b83811115610b20576000848401525b50505050565b60006002820490506001821680610b3e57607f821691505b60208210811415610b5257610b51610c01565b5b50919050565b610b6182610c5f565b810181811067ffffffffffffffff82111715610b8057610b7f610c30565b5b80604052505050565b6000610b9482610ada565b91507fffffffffffffffffffffffffffffffffffffffffffffffffffffffffffffffff821415610bc757610bc6610bd2565b5b600182019050919050565b7f4e487b7100000000000000000000000000000000000000000000000000000000600052601160045260246000fd5b7f4e487b7100000000000000000000000000000000000000000000000000000000600052602260045260246000fd5b7f4e487b7100000000000000000000000000000000000000000000000000000000600052604160045260246000fd5b6000601f19601f8301169050919050565b7f5472616e73616374696f6e206e6f7420666f756e640000000000000000000000600082015250565b610ca281610ada565b8114610cad57600080fd5b5056fea2646970667358221220c0699612828cf2b3f48f5a8a5bfb4321d98f1cfb2fbc730ec232a07a2516c06264736f6c63430008040033",
  "linkReferences": {},
  "deployedLinkReferences": {}
}